{
  "contractName": "Election",
  "abi": [
    {
      "constant": true,
      "inputs": [],
      "name": "candidatesCount",
      "outputs": [
        {
          "name": "",
          "type": "uint256"
        }
      ],
      "payable": false,
      "stateMutability": "view",
      "type": "function"
    },
    {
      "constant": true,
      "inputs": [
        {
          "name": "",
          "type": "uint256"
        }
      ],
      "name": "candidates",
      "outputs": [
        {
          "name": "id",
          "type": "uint256"
        },
        {
          "name": "name",
          "type": "string"
        },
        {
          "name": "voteCount",
          "type": "uint256"
        }
      ],
      "payable": false,
      "stateMutability": "view",
      "type": "function"
    },
    {
      "constant": true,
      "inputs": [
        {
          "name": "",
          "type": "address"
        }
      ],
      "name": "voters",
      "outputs": [
        {
          "name": "",
          "type": "bool"
        }
      ],
      "payable": false,
      "stateMutability": "view",
      "type": "function"
    },
    {
      "inputs": [],
      "payable": false,
      "stateMutability": "nonpayable",
      "type": "constructor"
    },
    {
      "anonymous": false,
      "inputs": [
        {
          "indexed": true,
          "name": "_candidateId",
          "type": "uint256"
        }
      ],
      "name": "votedEvent",
      "type": "event"
    },
    {
      "constant": false,
      "inputs": [
        {
          "name": "_candidateId",
          "type": "uint256"
        }
      ],
      "name": "vote",
      "outputs": [],
      "payable": false,
      "stateMutability": "nonpayable",
      "type": "function"
    }
  ],
  "bytecode": "0x608060405234801561001057600080fd5b5061005e6040805190810160405280600b81526020017f43616e646964617465203100000000000000000000000000000000000000000081525061014a640100000000026401000000009004565b6100ab6040805190810160405280600b81526020017f43616e646964617465203200000000000000000000000000000000000000000081525061014a640100000000026401000000009004565b6100f86040805190810160405280600b81526020017f43616e646964617465203300000000000000000000000000000000000000000081525061014a640100000000026401000000009004565b6101456040805190810160405280600b81526020017f43616e646964617465203400000000000000000000000000000000000000000081525061014a640100000000026401000000009004565b61026c565b600260008154809291906001019190505550606060405190810160405280600254815260200182815260200160008152506001600060025481526020019081526020016000206000820151816000015560208201518160010190805190602001906101b69291906101c7565b506040820151816002015590505050565b828054600181600116156101000203166002900490600052602060002090601f016020900481019282601f1061020857805160ff1916838001178555610236565b82800160010185558215610236579182015b8281111561023557825182559160200191906001019061021a565b5b5090506102439190610247565b5090565b61026991905b8082111561026557600081600090555060010161024d565b5090565b90565b6104018061027b6000396000f3fe608060405234801561001057600080fd5b5060043610610069576000357c0100000000000000000000000000000000000000000000000000000000900480630121b93f1461006e5780632d35a8a21461009c5780633477ee2e146100ba578063a3ec138d1461016f575b600080fd5b61009a6004803603602081101561008457600080fd5b81019080803590602001909291905050506101cb565b005b6100a46102ed565b6040518082815260200191505060405180910390f35b6100e6600480360360208110156100d057600080fd5b81019080803590602001909291905050506102f3565b6040518084815260200180602001838152602001828103825284818151815260200191508051906020019080838360005b83811015610132578082015181840152602081019050610117565b50505050905090810190601f16801561015f5780820380516001836020036101000a031916815260200191505b5094505050505060405180910390f35b6101b16004803603602081101561018557600080fd5b81019080803573ffffffffffffffffffffffffffffffffffffffff1690602001909291905050506103b5565b604051808215151515815260200191505060405180910390f35b6000803373ffffffffffffffffffffffffffffffffffffffff1673ffffffffffffffffffffffffffffffffffffffff16815260200190815260200160002060009054906101000a900460ff1615151561022357600080fd5b60008111801561023557506002548111155b151561024057600080fd5b60016000803373ffffffffffffffffffffffffffffffffffffffff1673ffffffffffffffffffffffffffffffffffffffff16815260200190815260200160002060006101000a81548160ff0219169083151502179055506001600082815260200190815260200160002060020160008154809291906001019190505550807ffff3c900d938d21d0990d786e819f29b8d05c1ef587b462b939609625b684b1660405160405180910390a250565b60025481565b6001602052806000526040600020600091509050806000015490806001018054600181600116156101000203166002900480601f0160208091040260200160405190810160405280929190818152602001828054600181600116156101000203166002900480156103a55780601f1061037a576101008083540402835291602001916103a5565b820191906000526020600020905b81548152906001019060200180831161038857829003601f168201915b5050505050908060020154905083565b60006020528060005260406000206000915054906101000a900460ff168156fea165627a7a72305820da19fc43765a6ce9fdd12a3b5b066d3c98cbf192e20bc2f1c2c47052f1798db70029",
  "source": "pragma solidity ^0.5.0;\n\ncontract Election {\n    // Model a Candidate\n    struct Candidate {\n\n    //canidaite value\n      uint id;\n      string name;\n      uint voteCount;\n    }\n\n    // Store accounts that have voted\n    mapping(address => bool) public voters;\n\n    // Store Candidates\n    // Fetch Candidate\n    mapping(uint => Candidate) public candidates;\n\n    // Store Candidates Count\n    //keeps track of the amount of candidates\n    uint public candidatesCount;\n\n    // voted event\n    event votedEvent (\n    uint indexed _candidateId\n    );\n\n    constructor () public {\n      addCandidate(\"Candidate 1\");\n      addCandidate(\"Candidate 2\");\n      addCandidate(\"Candidate 3\");\n      addCandidate(\"Candidate 4\");\n\n\n    }\n\n    function addCandidate (string memory _name) private {\n      //represents the ID of the candidate so we ++ first\n        candidatesCount ++;\n\n        //pass it the key / ID we get from above\n        candidates[candidatesCount] = Candidate(candidatesCount, _name, 0);\n    }\n\n    function vote (uint _candidateId) public {\n\n        // require that they haven't voted before\n        require(!voters[msg.sender]);\n\n        // require a valid candidate\n        require(_candidateId > 0 && _candidateId <= candidatesCount);\n\n        // record that voter has voted\n        voters[msg.sender] = true;\n\n        // update candidate vote Count\n        candidates[_candidateId].voteCount ++;\n\n        // trigger voted event\n        emit votedEvent(_candidateId);\n    }\n}\n",
  "sourcePath": "/Users/rfk/Desktop/dApp_eth_election/contracts/Election.sol",
  "compiler": {
    "name": "solc",
    "version": "0.5.4+commit.9549d8ff.Emscripten.clang"
  },
  "schemaVersion": "3.0.13",
  "updatedAt": "2019-09-19T20:42:06.387Z",
  "devdoc": {
    "methods": {}
  },
  "userdoc": {
    "methods": {}
  }
}